:020000040800F2
:1000000000200020553C0008213A0008233A00084F
:1000100000000000000000000000000000000000E0
:10002000000000000000000000000000253A000869
:100030000000000000000000273A0008293A0008EC
:10004000A53C000800000000A53C0008A53C0008F5
:10005000A53C0008A53C0008A53C0008313A000872
:1000600000000000493A0008593A0008A53C000881
:10007000A53C0008A53C0008A53C000800000000C5
:10008000A53C00080000000000000000A53C00089E
:1000900000000000A53C0008A53C0008A53C0008A5
:1000A000A53C0008693A0008A53C0008A53C0008EA
:0800B000A53C0008000000005F
:1000B80010B5064C2378002B07D1054B002B02D036
:1000C800044800E000BF0123237010BD580400203D
:1000D80000000000C05D0008044B10B5002B03D0E1
:1000E8000349044800E000BF10BDC04600000000FE
:1000F8005C040020C05D0008002243088B4274D3D2
:1001080003098B425FD3030A8B4244D3030B8B4210
:1001180028D3030C8B420DD3FF22090212BA030C19
:100128008B4202D31212090265D0030B8B4219D3FA
:1001380000E0090AC30B8B4201D3CB03C01A52411A
:10014800830B8B4201D38B03C01A5241430B8B4262
:1001580001D34B03C01A5241030B8B4201D30B034B
:10016800C01A5241C30A8B4201D3CB02C01A524172
:10017800830A8B4201D38B02C01A5241430A8B4235
:1001880001D34B02C01A5241030A8B4201D30B021E
:10019800C01A5241CDD2C3098B4201D3CB01C01A38
:1001A800524183098B4201D38B01C01A5241430942
:1001B8008B4201D34B01C01A524103098B4201D330
:1001C8000B01C01A5241C3088B4201D3CB00C01A9D
:1001D800524183088B4201D38B00C01A5241430815
:1001E8008B4201D34B00C01A5241411A00D201463A
:1001F800524110467047FFE701B5002000F006F8AD
:1002080002BDC0460029F7D076E770477047C04660
:100218008446100062468C461900634600E0C046DA
:100228001FB501F0C7FB002801D40021C8421FBD3B
:1002380010B501F017FB4042013010BD10B501F0B8
:10024800B9FB002801DB002010BD012010BDC0460D
:1002580010B501F0AFFB002801DD002010BD012022
:1002680010BDC04610B501F03FFB002801DC00209E
:1002780010BD012010BDC04610B501F035FB0028A7
:1002880001DA002010BD012010BDC04684460800D8
:100298006146FFE71FB500F053FA002801D400219A
:1002A800C8421FBD10B500F0DFF94042013010BD53
:1002B80010B500F045FA002801DB002010BD012030
:1002C80010BDC04610B500F03BFA002801DD002043
:1002D80010BD012010BDC04610B500F0EBF9002894
:1002E80001DC002010BD012010BDC04610B500F093
:1002F800E1F9002801DA002010BD012010BDC04638
:1003080070B50600080002F01DFA0022064B01F045
:10031800B5FB0D000400300002F014FA2B00220097
:1003280000F06EFC70BDC0460000F041F0B5C64656
:1003380043025B0A4E0245004F00DA00C40F9C4698
:10034800700A904600B52D0E3F0EC90FB6098C42B3
:100358004BD0EA1B002A36DD002F61D0FF2D00D1DB
:10036800ADE08023DB041E431B2A00DCD3E0012020
:100378004346181A430100D48CE0800187093800ED
:1003880002F0D6FA05388740854200DCB6E02D1A1F
:10039800B3483840430704D00F230340042B00D050
:1003A8000430430100D478E06A1CFE2D65D080013A
:1003B800430A9C46D2B26346D0051843E40720435B
:1003C80080BCB846F0BD002A35D07A1B002D00D07D
:1003D800AFE04346002B00D1A7E0531E012A00D10D
:1003E8002FE1FF2A69D01A00AAE0E91B002970DD75
:1003F800002F37D0FF2D62D08023DB041E431B293A
:1004080000DCB0E001204044430143D50135FF2D15
:1004180033D00123934A0340400810401843B9E7FA
:10042800002E00D183E0511E012A00D1D8E0FF2A16
:1004380045D00A0098E7FE276A1C174200D086E0DC
:10044800002D00D0B7E04346002B00D1F3E0002296
:10045800002EB0D0981B430100D4FAE043460C00AC
:10046800F01A97E7002E00D1C8E04A1E012900D1F2
:10047800AEE0FF2923D01100C1E70023FF229C46EC
:1004880099E7FE216A1C114277D0FF2AF5D01500A2
:1004980046447008430700D07EE7C308FF2D0ED0FE
:1004A8005B025B0A9C46EAB285E7002E07D08022F1
:1004B800D203134203D0104201D10C000300002BD9
:1004C800DBD08020C00318434002430A9C46FF2229
:1004D80071E70029D5D07A1B002D60D14346002B47
:1004E80024D0531E012A73D0FF2AE7D01A001B2AF2
:1004F80000DC85E001203D00801985E720233A00D3
:10050800451B38000135EA405D1BA840431E984151
:10051800002510433EE7202330009B1A3100984005
:10052800D140431E9841084322E70C000300150000
:10053800B4E7FF2FC1D080234046DB041843804630
:100548001B2A51DD01200C003D00301A12E74346FA
:100558009F1B7B012BD4002F00D010E70023002421
:1005680000229C4627E7202332003000CA40591A4F
:100578008840431E9841104345E7002D4AD1434621
:10058800002B63D00022002E00D114E73000404435
:10059800430100D47EE7324B013518407AE7FF2F3C
:1005A8008CD080234146DB04194388469FE74346A5
:1005B8000C00F71AE3E64246002A00D075E7002E41
:1005C80000D07AE78023DB0300249C46FF22F2E672
:1005D800300040440125430100D45BE7022518E7B9
:1005E80043460125981BC5E6202344464046D4408F
:1005F8009A1A9040431E98412043A4E70D004DE706
:10060800202341464046D1409A1A9040431E9841C3
:10061800084370E74246002A00D14FE7002E00D178
:100628004DE78022D203134200D148E7104200D0A0
:1006380045E7030043E7002E90D00C0084460022D3
:10064800B9E643460C00F01A013593E684460022C9
:10065800B1E6002800D01DE7002300249C46AAE646
:10066800FFFFFFFBFFFFFF7D70B5420045024E0212
:100678004C00C30F6D0A0120120E760A240EC90F12
:10068800FF2A06D0FF2C03D0A24201D1B54206D0E2
:1006980070BD002DFCD1FF2CFAD1002EF8D18B4271
:1006A80006D00120002AF3D12800431E9841EFE725
:1006B8000020EDE770B5420045024E024C00C30F22
:1006C8006D0A120E760A240EC80FFF2A1BD0FF2CC3
:1006D8000ED0002A1BD1002C01D1002E1CD0002DD9
:1006E8000CD083421CD00221581E0840013870BD2E
:1006F800002E22D1002AF4D1002DF2D10028F6D103
:1007080001204042F3E7002D17D1FF2CF0D0002C38
:10071800E7D1002EE5D1E6E70020002DE7D0E2E79B
:10072800A24205DCEADBB54202D8E7D30020DEE7C7
:100738004342584140000138D9E702204042D6E7F9
:1007480070B5420045024E024C00C30F6D0A120EEE
:10075800760A240EC80FFF2A0BD0FF2C0DD0002AD2
:100768001FD1002C16D1002E14D10020002D10D03E
:1007780009E0002D0CD1FF2C13D1002E08D1002A3E
:1007880008D0834212D00221581E0840013800E0E8
:10079800022070BD002DF4D10028FAD1012040427A
:1007A800F7E7002CEDD1002EEBD1ECE7A24205DCF7
:1007B800F2DBB54202D8EFD30020EAE743425841C2
:1007C80040000138E5E7C046F8B5CE464746430243
:1007D8005B0A4E02DA009446720A914645004A00C6
:1007E80080B52D0E1F00C40F120EC90FB609FF2ABF
:1007F8005BD0012041408C4239D0A81A00285ADD2C
:10080800002A6AD0FF2D00D1D9E08022D2041643F5
:100818001B2800DCE9E001206346181A430100D4D4
:10082800B4E080018709380002F082F80538874073
:10083800854200DCCCE02D1AB5483840430704D087
:100848000F230340042B00D00430430100D4A0E060
:100858006A1CFE2D00D18DE08001470AD2B2D00576
:100868003843E4072043C0BCB946B046F8BDA81ACF
:100878008046002845DD002A70D0FF2D00D19EE07B
:100888008023DB041E4343461B2B00DCD2E00120FF
:10089800604443017AD50135FF2D6BD001239D4A71
:1008A8000340400810401843C8E7002E20D08C426F
:1008B80023D02800FF38002839D0571B002D00D03E
:1008C8009DE06346002B00D1DBE07B1E012F00D1A9
:1008D8000DE1FF2F71D01F0098E0002E00D1A7E096
:1008E800421E012800D1E6E0FF2868D010008FE7FB
:1008F80001204140A14200D07FE7FF2040428046CE
:10090800A8444046002838D0511B002D00D1AEE045
:10091800FF2A00D1DFE080236046DB0418438446C9
:100928001B2900DCD9E0012015008019B1E7FE2061
:100938006A1C104271D1002D00D0A6E06346002B3E
:1009480000D1D9E00022002E00D188E7981B43018E
:1009580000D4E1E063460C00F01A6FE7002E00D1E6
:10096800B7E00200013A012800D19CE0FF2826D018
:10097800904688E7FF22002771E7FE206A1C104294
:1009880064D0FF2AF6D0150066447008430700D0EB
:1009980056E7C308FF2D12D05B025F0AEAB25EE792
:1009A8006246002A00D196E0002E08D08022D203A9
:1009B800134204D04846104201D10C004B46002B8C
:1009C800D8D08027FF031F437F02FF227F0A46E714
:1009D80020233A00451B38000135EA405D1BA8403A
:1009E800431E98410025104328E720231B1A320094
:1009F8009E40C2403000431E984110430CE7FF2A36
:100A0800DBD080236046DB04184384461B2F56DD69
:100A180001200C001500301A00E763469F1B7B017C
:100A28003DD4002F00D0FEE600240022002716E760
:100A38000500AFE7320043464146DA4020235B1AFF
:100A48009E403000431E9841104321E7002DA7D156
:100A58006346002B59D00022002E00D1FFE630005B
:100A68006044430192D52A4B013518408EE763460E
:100A7800002B47D04B1E012915D0FF292BD0190078
:100A88004EE70C004B463D0084E76246002A8BD1B6
:100A9800002E92D180270024FF22FF03DFE6634661
:100AA8000C00F71ABFE6300060440125430100D46A
:100AB8006CE70225F2E663460125981BAEE6202383
:100AC80064466046FC40DF1BB840431E9841204303
:100AD8009FE705005EE74B4671E7202365466046C1
:100AE800CD40591A8840431E984128431CE7634665
:100AF8000C000125F01A91E6002E95D00C004F4607
:100B08000022ACE64B460D0044E74F460022A6E61D
:100B1800FFFFFFFBFFFFFF7D002800D036E7002422
:100B280000279CE641024200C30F490A0020120E2A
:100B38007E2A03DD9D2A02DD094A98187047802025
:100B480000040143952A07DC9620821AD1404842C6
:100B5800002BF3D10800F1E7963A9140F7E7C04639
:100B6800FFFFFF7FF8B5002813D0C317C6185E40F3
:100B7800C40F300001F0DCFE9E2305001B1A962BE3
:100B88000FDC082801DD083DAE407602760AD8B2AF
:100B980002E0002400200026C0053043E40720437B
:100BA800F8BD992B0CDD05223100121AD1400A003C
:100BB800010030001B318840411E88410243160065
:100BC800052D12DC31000D4F3940720709D00F2076
:100BD8003040042805D004314A0102D59F2339400A
:100BE8005B1B89014E0AD8B2D6E76A1F96403100CE
:100BF800024F39407207F4D0E9E7C046FFFFFFFB18
:100C0800F0B54F464646D6460D000400C0B51F0055
:100C180011002803620F400A10437A00520DE300C6
:100C28003C039146640AFA0F4F0F6E002743924621
:100C3800B846760DED0FC900954200D199E04C46B3
:100C4800341BA446002C00DC7CE04A46002A00D174
:100C5800B8E0C54A964200D11CE180223C0012044B
:100C68001443A0466246382A00DD61E11F2A00DDF0
:100C7800CCE164462022121B444694400F00A14652
:100C880064469140E7404C464A1E91413C434246E7
:100C980021436446E240801A5C1AA3429B415F42AA
:100CA800C71B3B0200D4D0E07F027F0A002F00D18F
:100CB800FFE0380001F03CFE010008392023220043
:100CC8005B1A8F40DA408C401743B14200DAFFE0EC
:100CD800891B4B1C1F2B00DDA8E020223900D21AEB
:100CE800200094409140D840621E9441DF40002685
:100CF80001430C43630709D00F232340042B05D07D
:100D0800231DA342A44164423F191C003B0200D4A6
:100D18009EE0954B01369E4200D1B7E0934AE40825
:100D280017407B0771057F0223433F0B4A0D1205CD
:100D38003A43ED072A4318001100E0BCBA46B14611
:100D4800A846F0BD002C4BD04C46A41BA446002E50
:100D580000D023E104001C4300D1AFE16246541ED9
:100D6800012A00D115E2804DAC4500D1C8E1A44666
:100D78001BE14A46B21A9446002A00DCACE04A4617
:100D8800002A43D0784A964200D1AFE180223C0045
:100D980012041443A0466246382A67DC1F2A00DC86
:100DA8005FE14746203AD7406246202A05D064468C
:100DB8004022121B4446944021434A1E91410C0094
:100DC8003C4357E03A000A4300D105E12200013ACA
:100DD800012C00D182E1644CA4455BD0944641E7E4
:100DE800634C771C274200D0C4E004001C43002E4B
:100DF80000D069E1002C00D1BFE144460C4300D08B
:100E0800D0E14207DB081343C00829E03A000A434F
:100E180000D170E162466446013A012C00D1E0E05D
:100E2800514CA44500D161E19446B4E73A001F391A
:100E3800CA401100202B03D04022D31A9F403C43C4
:100E4800631E9C41002700260C43630700D053E72C
:100E5800B446E4087B072343F808434A94451DD069
:100E68006246070352053F0B520D60E744460C43A8
:100E7800621E9441E4189C429B415F423F183B022A
:100E8800E3D5394B01369E4200D0B5E03200002749
:100E980000234CE74207DB081343C0081A0002434B
:100EA80000D1E1E180273F0307433F032E4A3F0B70
:100EB8003DE7200001F03CFD010018311F2900DC4E
:100EC800FCE60838844027000024B14200DBFFE636
:100ED800264A761A17400DE7002A2FD04A46921B59
:100EE8009446002E00D1ADE01F4A914500D10FE194
:100EF8008022120410436246382A00DD0FE11F2ABF
:100F080000DD80E1644620221E00121B67460400B3
:100F180093409440FE405A1E9341F84034431C438A
:100F2800804464188C42BF417F424E464744A6E73E
:100F380042460A4311004A1E9141ADE60C4C721C10
:100F4800224200D0A1E002001A43002E00D0FAE0AD
:100F5800002A00D145E13A000A4300D046E14207A1
:100F6800DB081343C0087BE7FF070000FFFF7FFF94
:100F7800FE07000047465C1AC21BA342BF417F42DE
:100F8800B94617004A46BF1A3A0200D58DE0230039
:100F98003B4300D08AE60020002561E7B44CA14518
:100FA80000D1ADE08024240420436446382C3DDC85
:100FB80062461F2C00DDB7E020251E002D1B040013
:100FC800AB40AC40D640D04042465D1EAB413443B6
:100FD800121A904623432CE04207DB081343C0084B
:100FE8003BE75C189C429B4140445B42C718012682
:100FF8003B0200D429E702269E4A630817400122D3
:1010080014401C43FB071C437F0873E64446203A00
:10101800D4406246202A05D067464022D21B474664
:10102800974039434A1E9141214335E60343581EF0
:101038008341CC1AA142BF4143467F4255464E46A2
:10104800DF1B2EE602001A4300D1BDE0624664466B
:10105800013A012C00D1E5E0854CA44558D09446CE
:1010680049E764462022121B444694400F00A146DB
:1010780064469140E7404C464A1E91413C434246F3
:101088000C436146CA408018F4E6794CA24200D16C
:10109800FDE6591899429B4140445F42C719FC0735
:1010A800490816000C437F08CFE6CC1AA142BF417D
:1010B80043467F42181A5546C71BF7E5C9087B0700
:1010C80055460B43F808C8E6002C00D081E043469B
:1010D8000B4315D1802000250003E3E65C1AA342E8
:1010E8009B41C71B5B420126FF1ADAE54207DB0872
:1010F8001343C008D2E64207DB081343C008ACE636
:1011080043464246C9085B0755460B43D008C5E627
:10111800434642465B07C9080B43D008BEE6034373
:101128001C00631E9C41FCE60200203CE2401400C7
:101138006246202A03D04025AD1AA8400343581E12
:101148008341234375E7002AE2D03A000A43CDD011
:101158004207DB0813438022C0081203104206D05E
:10116800FC08144203D12000CB087A0713435A0F16
:10117800DB005207DB08134390E643460B4300D1DC
:1011880009E743464246C9085B0755460B43D00862
:1011980066E6CC1AA14289413F1A494255460126C2
:1011A8007F1A7EE542465C1A871AA3429241524250
:1011B800BF1A3A023DD5CC1AA14289414346494259
:1011C8001F1A55467F1A95E57B07C9080B43F8088F
:1011D80043E64446DB080C4330D142071343C008BA
:1011E8005CE67B07C9080B43F80839E65C189C42A3
:1011F8009B4140445B42C7183B0200D425E61D4B87
:1012080001261F4021E60400203AD4406246202AE5
:1012180004D040226646921B904003435A1E9341D5
:101228001C437EE65C188C42894140444942471879
:10123800DDE623003B4300D1ADE606E64407234341
:101248008024C0082403204208D04246D6082642FB
:1012580004D155463000CB0851070B435A0FDB0029
:10126800DB085207134319E60023014A1F005EE515
:10127800FF070000FFFF7FFFF0B557464E46454683
:10128800DE46E0B5814605000C03480092461F0083
:1012980085B0240B400DCE0F002800D156E1D44B69
:1012A800984200D172E16B0FE4001C4380231B04B9
:1012B80023439846CF4BED009B4600239946834431
:1012C80000933C037B005046240B5B0DFF0F002B63
:1012D80000D11FE1C64A934200D162E1C549420FDD
:1012E8008C46E40059461443802263441204CB1A06
:1012F80014439B46C200002033007B409A464B466D
:101308000F2B27D8BC499B00CB589F46B246009B61
:10131800022B16D0032B00D18EE2012B00D0D9E08E
:1013280000230024002552461B052343D2071343FC
:101338002800190005B0F0BCBB46B246A946A04635
:10134800F0BD00240025AA4BEDE7BA46A0461500DB
:101358000090DCE7444500D2C7E100D1C2E1012397
:101368005B429C462E0040460025E3442302140EAF
:101378001C431B0C994623041F0C12024946009279
:101388000197FEF73FFF02007A430B04310C8046B9
:1013980019438A4207D901235B429C460919E04454
:1013A8008C4200D807E2881A4946FEF72BFF090449
:1013B8008C4631046646019A090C424303003143C6
:1013C8008A4204D90919013B8C4200D8EDE1881AF8
:1013D800424612041A4390464146009B0E041B0CD9
:1013E8001F000293009B360C1B04190C0B0073435F
:1013F800120C7E43039151437A431F0CBC46761866
:101408006644B14203D9802149028C466244310CBA
:101418008A1831041E04360C8E19904202D312D158
:10142800B54210D24346591E009B9C4665441F0096
:101438009D429B415B421B19C018844200D2A0E127
:1014480000D19BE18846AE1BB542AD41801A6D4282
:10145800401B844200D1D5E14946FEF7D3FE019AEC
:101468000B044243310C050019438A4200D96CE150
:10147800881A4946FEF7C6FE019A36044243090413
:10148800360C03000E43B24200D953E10398B61A52
:1014980002002D041D43029F2B041B0C5A437B435F
:1014A8009C46290C4843130C84446344794398426E
:1014B80003D98020400284466144180C12041B049E
:1014C800120C41189B188E4200D2FFE000D1FAE0BE
:1014D80001231D43494A5A44002A00DCAAE06B074D
:1014E80000D03DE1ED084346DB0106D54246444BBA
:1014F8001A4090468022D2005A44424B9A4200DD5C
:101508001FE743465B071D43434652055C02240B15
:10151800530D08E75246224300D17BE0002C00D14E
:10152800FAE0200001F004FA02000B3A1D23010042
:101538009B1A52460839DA408C40144352468A4076
:10154800314B58449B4683440020D5E64B46234301
:10155800984644D0002C00D1CEE0200001F0E8F9F4
:10156800010002000B391D235B1A49461000D940BF
:10157800083884400B004D4623439846854023484D
:10158800831A9B460023994600939AE64B462343C9
:1015980098461DD108239946063B002583460093AB
:1015A8008FE65246224309D1022349461943184B74
:1015B80089469C4600240220E3449DE603234A46CC
:1015C8001A43134B91469C4652460320E34493E644
:1015D8000C239946093BA0468346009371E60423F1
:1015E800994600239B4601330025009369E6C046CF
:1015F800FF07000001FCFFFFD85D0008FF030000A3
:10160800FFFFFFFEFE070000F30300000DFCFFFFD5
:1016180001F8FFFF494601231943894600240120A8
:101628006AE6002380249A4600258A4B24037AE63A
:1016380001256D4201239B1A382B00DD70E61F2B14
:1016480000DCBFE01F2149428A1A4146D1400A0006
:10165800202B04D04146804B5B4499400D436B1EC0
:101668009D4107232A431D0000241540134200D141
:10167800D4E00F2100231140042900D1CBE0111D33
:101688009142924152429B180A00190200D4C2E0CA
:1016980001230024002546E6802341461B03194206
:1016A80008D01C4206D11C432403BA461500694BD6
:1016B800240B38E68024434624031C432403B24603
:1016C800644B240B2FE6002B00D103E7A619681EF4
:1016D800A64200D28DE08E4200D2A3E000D1B3E052
:1016E8000500F5E6AA4200D939E64346DE07580860
:1016F8006B081E43ED0739E6484601F019F9010069
:101708000200153120321C2900DC2CE74B46083832
:1017180083400025984632E701F00AF903001A00D1
:10172800153220301C2A00DC00E75446083B002212
:101738009C4005E73619013BB44200D9A6E6B242FF
:1017480000D8A3E6831E3619A0E60919013D8C428C
:1017580000D98DE68A4200D88AE6851E091987E6EF
:101768000F232B40042B00D1BCE605235B42AB4280
:101778009B4104355B42ED089844B4E6AF4200D97A
:1017880060E6824204D800D05CE6AE4200D859E652
:1017980002235B429C46009BE0449C4665449D4274
:1017A8009B415B421B19C0184DE68A4200D80EE6E1
:1017B800831E09190BE68A4200D8F4E5831E984671
:1017C8000919F0E52549280059448D4042468A40C8
:1017D800691E8D414146D840D94002432A430B0037
:1017E800510700D151E70F211140042900D046E7E5
:1017F8004BE705008E4200D06AE6009A934200D07B
:1018080066E667E6164A5A44002A00DC10E7012318
:101818000025984467E65D075B021C0BD20800238D
:10182800154380E50098023D42008242BF417F4255
:101838003C1936190092DDE78024434624031C43F3
:101848002403044B240B6EE5009A9A42EAD3050060
:10185800D3E7C046FF0700003E0400001E04000056
:10186800FF030000F0B54E464546DE465746904613
:10187800E0B517001A03120B0500844619480E0339
:101888004C0091465A00DB0F9B46360B640DC90F7E
:10189800520D844219D0824210D0012094420ED1B8
:1018A8004E450CD10120C44509D1594517D0002C0B
:1018B80005D130002843431E984100E00120F0BCC8
:1018C800BB46B246A946A046F0BD330001202B43D3
:1018D800F5D1A242F3D14B463B43F0D1E2E70020D9
:1018E800EDE7C046FF070000F0B54746CE460400C6
:1018F800180016001B031B0B2D4D4A00994680B596
:1019080043000F03A446B0463F0B520DC90F5B0DB1
:10191800C00FAA4221D0AB4213D0002A22D13C43A7
:10192800002B02D14D462E4322D0002C10D08142EC
:1019380022D00220013908400138C0BCB946B0465F
:10194800F0BD4D462E4329D1002AF0D13C43EED1BB
:101958000028F2D101204042EFE73D0025431DD188
:101968009342EED0002BE2D14C462643DFD1E0E78C
:101978000020002CE1D0DCE79A420ADCE8DB4F4586
:10198800D7D80ED000204F45D7D20029E2D0080082
:10199800D3E74342584140000138CEE70220404295
:1019A800CBE7C445C5D80020C445C6D2EDE7C0463C
:1019B800FF070000F0B54746CE46040018001600A1
:1019C8001B031B0B2C4D4A00994680B543000F039F
:1019D800A446B0463F0B520DC90F5B0DC00FAA427B
:1019E8000DD0AB4210D0002A27D13C43002B11D197
:1019F8004D462E430ED10020002C15D00EE03D00A0
:101A0800254310D1934218D14D462E430BD1002ABD
:101A180002D13C43002C0BD0814214D00220013962
:101A28000840013800E00220C0BCB946B046F0BD0D
:101A38000028F9D101204042F6E7002BECD14C46B2
:101A48002643E9D1EAE79A4204DD4342584140007F
:101A58000138E9E79A42EBDB4F45DFD806D0002092
:101A68004F45E1D20029E5D00800DDE7C445D5D8C7
:101A78000020C445D8D2F5E7FF070000F0B5574667
:101A88004E464546DE46E0B598460C034B00060038
:101A9800924687B0240B5B0DCF0F002B00D15CE181
:101AA800D94A934200D175E1420FE40014438022E1
:101AB80012041443D54AC500944663440093002396
:101AC80099469B46434642461E03D20F5B0050464A
:101AD8009046360B5B0D00D120E1CB4A934200D1F2
:101AE80062E1CA49420F8C4600996344F6008C466D
:101AF800164380229C44120463461643C200002009
:101B080000930099434601318C4649467B40019336
:101B18000F2926D8BE4B890059588F464346019352
:101B28003400150083465B46022B16D0032B00D1E8
:101B380003E2012B00D0CDE0002200240025019B08
:101B480012052243DB071A432800110007B0F0BC36
:101B5800BB46B246A946A046F0BD00240025AA4AC5
:101B6800EDE7280C2D042D0C2B00110C1204120C7F
:101B78005343984613002F00434399464F434F441D
:101B8800BB4647460B003F0CBA464343DA44029330
:101B9800D14504D980277F02B9464B440293534666
:101BA8001B0C9B4653461F0443461B041B0C9846BC
:101BB8003B0043440493330C3604360C98463300F8
:101BC80043439946434643432F009A464346774347
:101BD8005D43380C4D444519A94503D980235B0260
:101BE8009946CA443F04280C3F0C2D04ED19270CD4
:101BF8002404240C0300200050437A4391463A0001
:101C080053440593030C9A464A436143494451445B
:101C1800AB44894503D980235B0299464A440004B2
:101C28000B0C000C09040918200099464346704320
:101C38005C437E435F43030C9846A41944444A44DA
:101C48000397A64204D980235B029846474403972A
:101C58002304029E9A46059B5E449846AE42AD41D7
:101C680076188E4289410004000C504440446D426D
:101C78004719B846934649428946C344D9449842CD
:101C88008041A845AD4193459241894589416D42BE
:101C980040422843240C524249420A43039B0019FC
:101CA8008018C7184B46DC0D049B75021D436A1E3D
:101CB80095414B46F60D7F0235435A023C43154386
:101CC800FB0100D41CE101216A080D401543E2071D
:101CD800154364084F496144002900DCB0E06B07F4
:101CE80009D00F222A40042A05D02A1DAA42AD4154
:101CF8006D4264191500E30104D58021464AC900E4
:101D080014406144454A914200DD26E76207ED0828
:101D1800640249051543240B4A0D10E75246324325
:101D280000D17FE0002E00D1DCE0300000F000FEA2
:101D380002000B3A1D2301009B1A52460839DA406B
:101D48008E40164352468A40009B3549181A0300B4
:101D58008C46634400200093D3E6250005434AD00F
:101D6800002C00D1B0E0200000F0E2FD01000200EC
:101D78000B391D2310005B1A3100350008388440E8
:101D8800D94085400C432648831A0093002399467E
:101D98009B4697E60500254326D108220093022397
:101DA800002491469B468DE65246009B324310D153
:101DB800154900268C46634449460093022319437B
:101DC800894602209DE65B460197022B00D0ADE6CE
:101DD800C3E60D4A0320944663444A46009303230E
:101DE8001A43914652468CE60C22009303230500C1
:101DF80091469B4666E604239946002300930133E7
:101E080000249B465EE6C046FF07000001FCFFFF7A
:101E1800185E0008FF030000FFFFFFFEFE0700003A
:101E28000DFCFFFF4946012319438946002601207E
:101E380067E6002380240025434A019324037EE6B5
:101E48000120401A382800DD76E61F285BDD1F22B6
:101E580023005242511ACB401900202803D03B4A94
:101E68006244944025436A1E95412A000A4307218B
:101E78000D000024154011425BD00F2100241140B1
:101E8800042953D0111D914292415242A4180A00CC
:101E980023024BD501220024002550E680231B0392
:101EA8001C4209D01E4207D133431C034346150088
:101EB800240B254A019342E680221203144324038B
:101EC800214A240B01973AE600F032FD0100020096
:101ED800153120321C2900DC4BE734000838002576
:101EE800844050E700F024FD03001A00153220302A
:101EF8001C2A00DC1EE75646083B00229E4023E7CA
:101F0800009B9C46E6E61249220061442E008D4063
:101F18008A40C640691E8D4132432A43C440530754
:101F2800B6D00F2111400429ACD1B1E7650764028E
:101F3800240BD2081543002201E680221203144321
:101F48002403014A240BFAE5FF0700003E040000C1
:101F58001E040000F8B557464E464546DE46E0B535
:101F68001E0017004A000B03520D5B0A9046420FF1
:101F78001A43CD0FCD4C3103C300944670007A0F3D
:101F8800490AFF009A46B946400DF60F1143A04290
:101F980000D1B1E001225640B346B54200D188E0F5
:101FA8004246121A002A00DCAEE0002800D1C1E047
:101FB800BE48804500D151E1802000040143382A01
:101FC80000DD7BE11F2A00DDEEE120203E00801AC3
:101FD8000C00D640D140874062468440521A781E91
:101FE8008741944634432743DC1BA3429B41624606
:101FF8005B42D31A99464B461B0200D418E14B4664
:102008005802430A99464B46002B00D137E148460F
:1020180000F08EFC010008392023220048465B1A94
:10202800DA4088408C4043461043884500DD36E15D
:10203800C91A4B1C1F2B00DDEAE020222600D21A09
:1020480001009440DE40D84000239140621E944134
:102058008146984631430C43630709D00F23234038
:10206800042B05D0231DA342A4416442A1441C00B3
:102078004B461B0200D4DEE041468C4B01319942AD
:1020880000D1E7E04B468A48E408034018004905B8
:102098005B07400223434A0D040B1205ED07224358
:1020A8002A4318001100F0BCBB46B246A946A04618
:1020B800F8BD4246121A002A52DD002800D19CE0E1
:1020C800A04500D1CAE0802000040143382A00DD81
:1020D80049E11F2A00DC97E110000E002038C640B5
:1020E800202A04D04020821A91400F43B9464C461A
:1020F800621E944134433AE10A003A4328D0B34679
:10210800B5422BD06B4A4244002A5DD04246444631
:10211800821A002C00D0F5E065461D4300D19CE1F1
:10212800551E012A00D1FBE1604CA24200D1BDE15D
:102138002A00F0E00800384300D1C3E0501E012A0D
:1021480000D1A8E1594CA24200D187E0020036E74D
:1021580001225640B346B54200D021E7554A4244D1
:10216800002A00D1B5E042464446821A002C00D12C
:1021780038E14E4EB04200D1DEE180266446360496
:102188003443A446382A00DD96E11F2A00DD24E204
:102198002026B41AA24664465646B440A1461C00FE
:1021A8004E46D440264334005646B3405E1EB341E3
:1021B8001C436346D340C918E419BC42BF417F425F
:1021C800B94680468944D8E040463B4C013020421D
:1021D80000D0B4E04046002800D044E160461843EF
:1021E80000D190E10800384300D0AAE16146DB083D
:1021F80049070B436146CC0827E00800384361D003
:10220800501E012A00D139E1A24227D002005DE721
:1022180002001F39CA401100202B03D04022D31AD4
:1022280098400443631E9C410023994698460C43FA
:10223800630700D012E74B464A46E4085B0723438E
:10224800D408424619498A420ED024035205240B69
:10225800520D22E70A00002400231EE7DB0862462D
:10226800520713436246D4081A00224300D1FCE106
:1022780080221203144324030C4A240B0DE7200088
:1022880000F056FB010018311F2900DCC4E60838AD
:102298008440434620000024884500DCC8E6044A00
:1022A8005B1A104098468146D6E6C046FF070000F4
:1022B800FFFF7FFF01F8FFFFFE0700000F437A1EB4
:1022C800974191E66146DB0849070B436146CC0814
:1022D800B8E74046D34C0130204200D0A2E0404647
:1022E800002800D001E16046184300D15EE10800F3
:1022F800384300D05FE16146DB0849070B4361467C
:10230800CC08A2E7C84DA84200D1CFE0802564469A
:102318002D042C43A446382A56DC1F2A00DDD1E0C0
:1023280020251E00AD1A6446AB40AC40D6405D1E69
:10233800AB41344323436446D440091B49E060461B
:10234800DC1B461AA34280414042814630004E467B
:10235800801B8146000276D44B46234300D052E6C8
:102368000024002571E739430C00621E9441E418EB
:102378009C429B415B42634499464B461B0200D4F6
:1023880056E701239C46A84BE044984538D04B4675
:10239800A648012203401800630814401C43C307E1
:1023A8001C434308994657E610000E002038C640E3
:1023B800202A04D04020821A91400F43B9464F4644
:1023C8007A1E974137430FE662461A4313005A1E96
:1023D8009341FC1AA742BF417F42CB1B99465D46F9
:1023E800804608E666461E4300D1BEE0561E012A16
:1023F80000D109E18C4CA24200D119E13200C1E6BA
:1024080042460024002348E620200C00801A3E00A3
:1024180087408440D640781E8741D14034433C43AE
:102428008C44A4E7804A904200D1E9E0DF199F423A
:102438009B4161445B42C918CC077F084B08994609
:1024480080463C43F4E6FC1AA742BF4163467F42FC
:10245800C91ACB1B99465D46D5E5FF084B075D4673
:102468003B43CC08EEE662461A4300D082E00B00FC
:102478003B431BD1802400252403F9E6DC199C4248
:102488009B41614489465B4299444B461B0244D4B4
:1024980001239846CCE6DC1B6246A3429B41511AB5
:1024A8005B42CB1A994601239846A4E5FF084B07DF
:1024B8005D463B43CC08D7E662461A431400631EC8
:1024C8009C4179E615006446203DEC40A046202A50
:1024D80005D040256446AA1A944023439A46544698
:1024E800631E9C414346234373E762461A4323D045
:1024F8000A003A4300D0A0E06246DB0852071343C3
:102508006246D408B0E60B003B4300D128E7FF0839
:102518004B075D463B43CC0897E60223984636E7CF
:10252800FC1AA742BF4163467F42C91ACB1B994692
:1025380001235D4698465EE54B07FF083B43CC0800
:1025480092E6DC1B6046A342B641401A7642801BE5
:102558008146000260D5FC1AA742BF4163467F420C
:10256800C91ACB1B99465D4676E5FF084B073B43E6
:10257800CC0867E60A00DB083A4300D16FE66246FA
:10258800520713436246D40880221203144207D02C
:10259800C808104204D15D460400FB0849070B43F4
:1025A8005A0FDB00DB08520713435DE64B07FF08B1
:1025B8003B43CC0849E6DC199C429B41614489466F
:1025C8005B4299444B461B0200D431E64A46174BFE
:1025D8001A400123914698462AE616006446203E92
:1025E800F440A046202A05D040266446B21A9440FA
:1025F80023439A465446631E9C4143461C43DBE5ED
:1026080002000024002348E5DC19BC42BF416144B4
:1026180089467F42B94438E74B46234300D19FE6B9
:1026280006E6C046FE070000FF070000FFFF7FFF29
:10263800FF084B073B43CC0816E66246DB08520707
:1026480013436246D40880221203144207D0C808F4
:10265800104204D15D460400FB0849070B435A0F9A
:10266800DB005207DB081343FEE50023014A1C0088
:1026780013E5C046FF0700000A0030B5134C5300AD
:1026880009030500090B00205B0DD20FA34204DDEE
:102698000F48834202DD0F4BD01830BD8020400325
:1026A80001430D48C01A1F2808DD0C48C31AD94039
:1026B8000B005842002AF0D11800EEE7084CC5403C
:1026C800A446634499400B002B43F2E7FE03000045
:1026D8001D040000FFFFFF7F330400001304000007
:1026E800EDFBFFFF70B5002816D0C317C5185D4075
:1026F800C40F280000F01CF9114A121A0A2816DC27
:1027080003002E0015339E400B23181AC5405205AE
:102718002D032D0B530D03E0002400230025002674
:102728001B052B43E40723433000190070BD0B3809
:10273800854052052D0300262D0B530DF0E7C046AA
:102748001E04000010B5041E10D000F0F1F80F4B65
:102758001B1A0A2811DC0B222100121AD14015304D
:102768000A035B058440120B5B0D01E00023002285
:102778001B0513432000190010BD22000B388240AE
:102788005B0512030024120B5B0DF1E71E04000029
:1027980070B543004602C40FFE201B0E591C750A73
:1027A80008420CD0E022920094466D07360B634431
:1027B8001B053343E40723432800190070BD002B91
:1027C80014D1002D1BD0280000F0B2F80A281CDC18
:1027D8000B232E001B1ADE40030015339D400E4AC2
:1027E8003603121A5205360B530DE1E7002D09D0B6
:1027F8008022360B1203094B6D071643D8E70023D6
:102808000026D5E70026054BD2E703000B3B9D4089
:102818002E000025E3E7C04689030000FF070000FB
:1028280002004B00F0B55B0D0C033D4E640A400FEF
:102838005F1CC90F0443D50037420AD039481E1817
:10284800FE2E16DDFF200024C0052043C9070843DB
:10285800F0BD002B06D12C4326D005229201540A44
:10286800D8B2F1E72543EDD08020C0030443FF2010
:10287800EAE7002E1BDD9201531E9A41E4006D0F1A
:1028880022432A43530748D00F231340042B00D078
:1028980004328023DB0413403FD0701CFE2ED1D0BD
:1028A8009201540AC0B2CFE700200024CCE73200DE
:1028B800173222DB8020000420431E24A41B1F2C77
:1028C8001DDD02225242961B0200F2401600202C07
:1028D80004D0154A94466344984005432A00531E81
:1028E8009A41324300265307CED180241300E404D2
:1028F800012023402242D3D1B0E70023ADE70B4AA1
:1029080094462A00E24014002A0063449A40984002
:10291800551EAA4102432243E4E733009EE7C0461E
:10292800FE07000080FCFFFFA2FCFFFF82FCFFFF08
:102938001C2101231B04984201D3000C10391B0AE7
:10294800984201D3000A08391B09984201D30009AB
:10295800043902A2105C40187047C0460403020202
:1029680001010101000000000000000000B583B073
:102978000D4A916B012319439163926B13400193A4
:10298800019B00220021092001F0DCF9092001F057
:1029980009FA002200210A2001F0D4F90A2001F0E6
:1029A80001FA03B000BDC0460010024000B587B070
:1029B8001422002101A803F029F90F4A516B0123C1
:1029C80019435163526B1A400092009A8A221201ED
:1029D8000192C422920302920393A02001A9C00588
:1029E80001F0FEFB00220021072001F0ABF90720CF
:1029F80001F0D8F907B000BD0010024010B50D4B2A
:102A08001B68002B0BDB0C4B01221A600B4B186068
:102A180001F092F90A4B186000225A6010BD094B68
:102A28001B68044A1360002BF8DA130000221A60AE
:102A3800F4E7C046700A0020C804002018000020EF
:102A4800C0040020CC04002070B53D4B00240025B4
:102A58001C605D603B4B1B68002B19D03A4B1B6810
:102A6800984207D0384B012252421A60354B002257
:102A78001A600DE020280CD0802818D080231B0174
:102A8800984245D02F4B00221A602F4B013A1A600A
:102A980070BD2E4B1B68002BF4DB032B03D00133D6
:102AA8002A4A1360EEE7294B00221A60EAE7274B0F
:102AB8001B68002BE6DB264B1C685D680022254B53
:102AC80020002900FDF7BAFB002817D00022214B6F
:102AD80020002900FEF794F81D4B186059601C4B24
:102AE8001868596800221C4BFDF7C6FB0028C9D09E
:102AF800174B0020194918605960C3E70022184B8A
:102B080020002900FEF77CF8114B18605960E6E7B1
:102B18000E4B1B68002BB5DB124C134A134B206875
:102B28006168FEF76DF820606160114A114BFDF78E
:102B3800A3FB0028A6D01048104920606160A1E7D7
:102B4800680A0020C804002018000020700A00202D
:102B58000800002000004E400000694000002440AA
:102B680000005E40100000209A9999999999B93F00
:102B7800333333333333D33F7B14AE47E17A943F57
:102B880010B5041C2449FDF7A7FB002800D0002439
:102B9800201CFFF7FDFD0022204BFEF76DFB0022F5
:102BA8001F4BFEF76BFF00221E4BFEF767FFFFF778
:102BB80063FDC217FF231900114009180912120EEC
:102BC800801803409B1A052922D88900164A5258B2
:102BD8009746D8B20022FF2300021B1810041818C9
:102BE80010BDDB43DBB20022FF20F5E7DAB2FF209D
:102BF8000023F1E7DB43D8B2FF220023ECE7DBB286
:102C0800FF220020E8E7DB43DAB20020FF23E3E7F6
:102C1800002210001300DFE70000B4430080764074
:102C28000000704000001840585E000830B50400ED
:102C38000348A5002C54401942708170C37030BD00
:102C48007404002070B50022002305E058001B49D9
:102C58000024445201330132312AF7DD002511E006
:102C68005900164C1B260E530133013A002A08DB83
:102C78000100D140C907F3D55900104C35260E5331
:102C8800F2E70135102D0BDCA9000D4A52185078D7
:102C98000004917809020843D27810431722E5E727
:102CA8009BB2064A0021074802F0FAFC064B1B7843
:102CB800002BFBD0044B00221A7070BDD0040020FA
:102CC80074040020900B0020B804002070B50400A4
:102CD8000D001600002009E00133072B05DC625CBB
:102CE8001A41D207F8D50130F6E70131B14201DACD
:102CF8000023F2E7751BAD00401B002806DDC21754
:102D080083185340112B06DD112004E0C2178318E5
:102D18005340112B00DC70BD11204042FBE7F0B599
:102D2800C64600B580460D00170080239B009942D7
:102D380000DD1D0080239B009F4200DD1F00002452
:102D4800002600E0E41980239B005B1BA3420EDDF4
:102D58002A1921004046FFF7B9FFC317C2185A4085
:102D6800F11773184B409A42ECDD0600EAE7300091
:102D780080BCB846F0BD000010B50021034802F041
:102D8800E7FD034B01221A7010BDC046900B0020CE
:102D9800B8040020F8B5CE46474680B50400294D52
:102DA80064220C212800FFF7BAFF8146C217861853
:102DB8005640642278212800FFF7B1FF8046C217E9
:102DC800831853409E423BDD4D466422F0211D4846
:102DD800FFF7A5FF0700EA17AB185340C1174218C1
:102DE8004A40934200DC0500B4216422490015489A
:102DF800FFF795FF0600EA17AB185340C1174218B2
:102E08004A40934200DC0500F021642249000D4845
:102E1800FFF785FFEB17EA185A40C317C118594046
:102E28008A4200DC050025604B4663604346A36088
:102E3800E760266160612000C0BCB946B046F8BDB5
:102E48000500C2E76408002010B5002406E0E0B2DF
:102E5800002300220021FFF7E9FE0134102CF6DDE3
:102E68000123012200211020FFF7E0FEFFF7EAFE10
:102E780010BD10B5002406E0E0B2002300220021B6
:102E8800FFF7D4FE0134102CF6DD002301220021C7
:102E98001020FFF7CBFEFFF7D5FE10BD72B6FEE798
:102EA80010B5264A136807218B4305390B43136075
:102EB800224B1A6807231340022BF9D1204A1168C4
:102EC800FE330B4313601E4B1B685B05FBD51C4B85
:102ED800DA681C4911401C4A0A43DA6019688022E2
:102EE80052040A431A60D968802252050A43DA60FC
:102EF800134B1B689B01FBD5114A936813490B4080
:102F08009360936807218B4305390B4393600C4BFF
:102F18009A6838231340102BF9D1094A93680C4951
:102F28000B4093600B4802F049FE032000F0B8FE06
:102F3800002800D110BDFFF7B1FFC04600200240B5
:102F4800001002408C80FF1F02080020FFF0FFFFE6
:102F5800FF8FFFFF0090D003F0B5DE4657464E4680
:102F68004546E0B58FB000F0C7FEFFF799FFFFF7C1
:102F78001DFD00F09DFCFFF7F9FC00F0DDFDD74CCE
:102F8800200001F07FFC200001F0FAFB8022920073
:102F9800D349200001F09EFDE5235B00D14A0021C2
:102FA800D14802F07DFB002300240493059409E036
:102FB800CE4B00221A60CE4BCE4A1968116002220D
:102FC80052421A60C94B1B68002B12D000F0B4FEA5
:102FD800029000230393C84B1A685B680298039910
:102FE800801A99410A1EE3D103D1AF239B0098426E
:102FF800DED8BF4B1B689A46012B4ED0002B00D061
:10300800E3E2BE4B1C685D68BD4B1E685F6832001A
:103018003B0020002900FDF711F9002808D0B94A23
:10302800B94B20002900FDF7EBFDB44B186059603F
:10303800B24B1C685D6822002B0030003900FDF798
:10304800FDF8002808D0AF4AAF4B20002900FEF752
:1030580081FFAA4B1860596008A8FFF79BFE089BE0
:1030680099460433082B00D9F8E1A8490122002326
:103078000C684D68A4185D410C604D60002D00D1AE
:10308800E5E1A24B0020002118605960994B00220D
:103098001A60974B013A1A6094E7984B1E685F686C
:1030A800974B1C685D6822002B0030003900FDF743
:1030B800C5F8002808D0934A934B30003900FDF733
:1030C8009FFD8E4B186059608C4B1E685F683200FC
:1030D8003B0020002900FDF7B1F8002808D0894AF4
:1030E800894B30003900FEF735FF844B1860596072
:1030F80008A8FFF74FFE089904291DDC8348012220
:10310800002304684568A4185D4104604560002DEB
:103118000BD07E4B0020002118605960754B0122AE
:103128001A60734B023A1A604CE7002D09D1AF239D
:103138001B019C42EDD804E0744B002400251C6060
:103148005D60CB0F5B185B10DA179B1853400822A1
:10315800D21A93460922904698445B46002B1DDB01
:103168004346112B01DD11239846694A694B6A4988
:1031780008684968FEF7EEFE0022684BFEF77EFC01
:103188000022674BFEF77AFCFFF74AFB0790002105
:10319800FDF7CCF8814600245D4609E000239B46F4
:1031A800DEE7E0B2002300220021FFF73FFD0134F3
:1031B800A542F6DCAB4608239A464B46069353468F
:1031C80000937DE00698FFF7DBFC0400000AFF256A
:1031D80028404A4B1E685F68FFF7B4FA32003B008C
:1031E800FEF74AF8FFF71CFB81462B002340180026
:1031F800FFF7A8FA32003B00FEF73EF8FFF710FB96
:103208008246200C2840FFF79DFA32003B00FEF76B
:1032180033F8FFF705FB041C4846FDF783FC06005E
:103228005046FDF77FFC0500201CFDF77BFCC3B270
:10323800EAB2F1B2009EF0B2FFF7F8FC099A0092E8
:10324800D11755184D406D000A9A0092D11754189D
:103258004C402D190B9A00921000FFF743FA0022F8
:10326800304BFEF70BFCFFF707FAC21780185040E7
:103278002D180C9A00921000FFF734FA00222A4BFE
:10328800FEF7FCFBFFF7F8F9C217841854402C1915
:103298000D98FFF727FA0022FF239B05FEF7EEFBA8
:1032A800FFF7EAF9C217801850402018FDF75AFCBA
:1032B800011C0698FDF73AF806903300013B00938D
:1032C800009B9B4500DC7DE718490798FDF72EF821
:1032D800834608230093C246A7E0C046D00A0020D0
:1032E80064080020D0040020900B0020C8040020AF
:1032F800700A0020CC040020C00400200000002038
:1033080008000020333333333333E33F680A0020A7
:103318007B14AE47E17A943F10000020000024405F
:1033280000005E400000E03F0000D03F0000704118
:103338005846FFF725FC0400000AFF252840E34B08
:103348001E685F68FFF7FEF932003B00FDF794FF47
:10335800FFF766FA814628002040FFF7F3F93200AC
:103368003B00FDF789FFFFF75BFA8046200C2840F9
:10337800FFF7E8F932003B00FDF77EFFFFF750FA50
:10338800041C4846FDF7CEFB06004046FDF7CAFB85
:103398000500201CFDF7C6FBC3B2EAB2F1B2009DDE
:1033A800E8B2FFF743FC099A00925400E217A41808
:1033B80054400A9A0092D1175018484024180B9A82
:1033C80000921000FFF78EF90022C14BFEF756FB62
:1033D800FFF752F9C2178018504024180C9A00922F
:1033E8001000FFF77FF90022BA4BFEF747FBFFF703
:1033F80043F9C2178018504024180D98FFF772F946
:103408000022FF239B05FEF739FBFFF735F9C217AA
:10341800801850402018FDF7A5FB011C5846FCF702
:1034280085FF83462B0001330093009B9A4500DDFE
:103438007EE7544606E0E0B2002300220021FFF7B1
:10344800F5FB0134102CF6DDFFF7FCFBBAE5002D87
:1034580004D1AF231B019C4200D912E69E4A9F4B20
:103468009F4908684968FEF775FD00229D4BFEF7E5
:1034780005FB00229C4BFEF701FBFFF7D1F98046C4
:103488009A49FCF753FF069053460093CA4602E058
:10349800009B013300935346DA179C185440009B55
:1034A8009C4200DC8CE00698FFF76AFB0400000AE7
:1034B800FF252840854B1E685F68FFF743F93200F7
:1034C8003B00FDF7D9FEFFF7ABF981462B002340FF
:1034D8001800FFF737F932003B00FDF7CDFEFFF784
:1034E8009FF98346200C2840FFF72CF932003B0057
:1034F800FDF7C2FEFFF794F9041C4846FDF712FBDE
:1035080006005846FDF70EFB0500201CFDF70AFBD8
:10351800C3B2EAB2F1B268460078FFF787FB4146CA
:10352800069E301CFDF750F97149FCF7C1FE0028D2
:10353800AED0099B06935D00EB17ED185D400A9B22
:103548000693DA179C1854402D190B9B0693180004
:10355800FFF7C8F800225E4BFEF790FAFFF78CF8E9
:10356800C317C01858402D180C9B06931800FFF776
:10357800B9F80022574BFEF781FAFFF77DF8C31719
:10358800C4185C402C190D98FFF7ACF80022FF23F3
:103598009B05FEF773FAFFF76FF8C317C01858407A
:1035A8002018FDF7DFFA011C301CFCF7BFFE06905F
:1035B8006EE7E0B2002300220021FFF737FB013459
:1035C800102CF6DDFFF73EFBFCE4032B0CD0022B9E
:1035D80000D1ABE0013300D147E15346023300D0BC
:1035E800F0E4FFF746FCEDE4384B1E685F68414B9A
:1035F8001C685D6822002B0030003900FCF71EFEB5
:10360800002808D03C4A3D4B30003900FDF7F8FA55
:103618002E4B186059602D4B1E685F6832003B00C6
:1036280020002900FCF70AFE002808D0324A334B54
:1036380030003900FEF78EFC244B186059600027D3
:10364800102F5DDC04980599FFF7EAF8FFF798FA60
:103658000600000AFF23994618401C4B1C685D6849
:103668000021FCF74DFE22002B00FDF705FEFFF7B9
:10367800D7F8824648463040FFF764F822002B000E
:10368800FDF7FAFDFFF7CCF88046300C4B461840A2
:103698000021FCF735FE22002B00FDF7EDFDFFF7BA
:1036A800BFF8061C5046FDF73DFA04004046FDF7FA
:1036B80039FA0500301CFDF735FAC3B2EAB2E1B2B7
:1036C800F8B2FFF7B3FA0137BAE7C04600000020A6
:1036D8000000E03F0000D03F7B14AE47E17A943F02
:1036E800100000200000244000005E4000007041EF
:1036F8000000C842080000209A9999999999C93FF1
:10370800624B1A685B6804980599FDF779FA04908A
:10371800059100225E4BFCF7AFFD002803D0002383
:10372800002404930594FFF78DFA4BE4594B1E6867
:103738005F68594B1C685D6822002B003000390017
:10374800FCF77CFD002808D0544A554B300039005E
:10375800FDF756FA4F4B186059604E4B1E685F686C
:1037680032003B0020002900FCF768FD002808D043
:103778004A4A4B4B30003900FEF7ECFB454B1860CA
:103788005960049B059C00930194002700E00137D1
:10379800102F53DC00980199FFF742F8FFF7F0F972
:1037A8008246000AFF2630403A4B1C685D680021BB
:1037B800FCF7A6FD22002B00FDF75EFDFFF730F8B1
:1037C8008146534633401800FEF7BCFF22002B0009
:1037D800FDF752FDFFF724F880465346180C304099
:1037E8000021FCF78DFD22002B00FDF745FDFFF7BA
:1037F80017F8061C4846FDF795F904004046FDF702
:1038080091F90500301CFDF78DF9C3B2EAB2E1B2B7
:10381800F8B2FFF70BFA0022224B00980199FDF746
:10382800EFF9009001910022194BFCF725FD0028C3
:10383800ADD00023002400930194A8E7134B1A6825
:103848005B6804980599FDF7DBF90490059100225F
:103858000F4BFCF711FD002803D00023002404932C
:103868000594FFF7EFF9FFF7ADFB08A8FFF792FA09
:10387800FFF7EAFA089B0B2B01DCFFF7A3FB0A4BC7
:103888001A680A4B1A60FFF79DFBC046100000201B
:103898000080764000000020080000209A9999993D
:1038A8009999C93F00001C40CC040020700A0020F0
:1038B80010B51248124B036082235B0043608023DB
:1038C800DB008360E023DB00C36000230361436106
:1038D800802292008261E93AFF3AC2610362436240
:1038E8008362113AC2620363436300F049FF002810
:1038F80000D110BDFFF7D2FAFBE7C046D00A00207E
:103908000030014010B588B004001422002103A83B
:1039180002F07CF9214B22689A4201D008B010BD10
:103928001F4B196C80204001014319641A6C024036
:103938000192019A596B0122114359635B6B1A403A
:103948000292029B42230393403B0493A02003A9C5
:10395800C00500F045FC1348134B03601023436077
:1039680000238360C3608022026143618361603AFF
:10397800C261036200F0A2FA00280BD1094BA365CB
:103988009C6200220021192000F0DCF9192000F0C7
:1039980009FAC3E7FFF782FAF0E7C04600300140B2
:1039A80000100240740A00201C00024010B50400F8
:1039B8000A4B02689A4200D010BD094A136C0949A3
:1039C8000B401364A0204221C00500F0C5FCA06D87
:1039D80000F0CCFA192000F0F1F9EDE700300140D1
:1039E80000100240FFEFFFFF82B00A4B196C012262
:1039F80011431964196C0A400092009ADA6B80210D
:103A080049050A43DA63DB6B0B400193019B02B063
:103A18007047C04600100240FEE7FEE77047704757
:103A280010B500F07DF910BD10B5202000F016FD8E
:103A3800802000F013FD8020000100F00FFD10BD74
:103A480010B5024800F066FB10BDC046340B0020DC
:103A580010B5024800F05EFB10BDC046740A002095
:103A680010B5024801F088F910BDC046D00A002000
:103A78007047000010B582B00400174B02689A42E4
:103A880001D002B010BD154A116C8020000101431D
:103A98001164136C03400193019B1148114B03609F
:103AA80014234360043B83600023C36080220261C7
:103AB800803242618022D20082612022C261036288
:103AC80000F0FCF9002803D1054B63629C62D8E73B
:103AD800FFF7E4F9F8E7C046002C01400010024067
:103AE800340B00200800024010B586B004001422F0
:103AF800002101A802F08AF822680D4B9A4201D0F1
:103B080006B010BD0B4A516B012319435163526B28
:103B180013400093009B80235B000193FE3B0293BC
:103B28000593A02001A9C00500F05AFBE8E7C046AC
:103B3800002C01400010024000B59DB01022002169
:103B480018A802F063F80C22002115A802F05EF80C
:103B58001C2200210EA802F059F83422002101A8E5
:103B680002F054F83748384B036000234360836001
:103B78004F22C26003614361836101F0B1FB0028F9
:103B88004BD180235B01189318A92E4801F0F6FC4D
:103B9800002845D12B4801F0D3FB002843D100234E
:103BA80015931693179315A9264801F069FF002865
:103BB8003CD160230E9300230F931093119312931B
:103BC8001393149300220EA91E4801F029FC002823
:103BD8002FD10C220EA91B4801F022FC00282BD162
:103BE8000023019302930393049305938022920187
:103BF8000692079308930993802292040A920B93E2
:103C08000C930D9301A90F4801F072FF002816D1FB
:103C18000C48FFF769FF1DB000BDFFF73FF9B0E79B
:103C2800FFF73CF9B6E7FFF739F9B8E7FFF736F9D8
:103C3800BFE7FFF733F9CCE7FFF730F9D0E7FFF735
:103C48002DF9E5E7900B0020002C01400D48854632
:103C5800FFF70EFF0C480D490D4A002302E0D45827
:103C6800C4500433C4188C42F9D30A4A0A4C0023BE
:103C780001E013600432A242FBD301F0A5FFFFF775
:103C88006BF9FEE70020002000000020540400200B
:103C9800D45E000858040020E40B0020FEE7000072
:103CA80010B50400114B1978002901D1012010BD6D
:103CB800FA208000FCF720FA01000D4B1868FCF789
:103CC8001BFA00F08BF800280DD1032C01D9012034
:103CD800EDE7013000222100404200F033F8054BA7
:103CE8001C600020E3E70120E1E7C0462000002037
:103CF8001C0000202400002010B5084A1168802309
:103D08005B000B4313600320FFF7CAFF041E02D0B9
:103D18000124200010BDFFF767FEFAE700200240EB
:103D2800034B1B78034A11685B1813607047C04641
:103D380020000020DC0B0020014B18687047C046AB
:103D4800DC0B002070B5002811DB8308134EC0334C
:103D58009B009D5903242040C000FF22140084408A
:103D6800A54389010A4082402A439A5170BD0F2316
:103D78000340083B9B0806339B00094A944663446A
:103D88005C6803221040C000FC3215008540AC433B
:103D980089010A40824022435A60E7E700E100E0D7
:103DA80000ED00E0002805DB1F2318401E3B834080
:103DB800014A13607047C04600E100E000280ADBB2
:103DC8001F2318401E3B8340034980228B50BFF3BA
:103DD8004F8FBFF36F8F704700E100E001388023F9
:103DE8005B0498420FD2094A50600948036A1B02D3
:103DF8001B0AC02109060B430362002393600733A3
:103E08001360002070470120FCE7C04610E000E086
:103E180000ED00E0F0B5846CC56C6560046D002CA5
:103E280002D0446D856D65600B4F7C681C26056C5F
:103E38002E400125B5402C437C600468636083688C
:103E4800102B04D0036899600368DA60F0BD03683A
:103E58009A600368D960F9E70000024010B50400D1
:103E6800036C9B08094A944663449B004364FF2003
:103E78002368184008381421FCF73EF9044BA36462
:103E88001F2318401E3B8340E36410BD00820010CE
:103E9800800802403F2342681340064A9A1892005D
:103EA8000265054A4265013B03221A4001239340FB
:103EB800836570473F8200104009024070B5041EB8
:103EC8004DD00568274BE8181421FCF715F9800038
:103ED800206425230222E2542B68234A13402B60D6
:103EE80021680A68A368E06803432069034360699E
:103EF8000343A0690343E0690343206A0343134370
:103F08000B602000FFF7AAFF8023DB01A2689A421A
:103F180018D0626C3F2361680B401360A36CE26C9D
:103F28005A606368013B032B0FD90023236563653F
:103F3800A3650023E36325220121A154013AA35478
:103F4800002070BD00236360E3E72000FFF7A2FFB5
:103F5800236D00221A60636DA26D5A60E9E70120A3
:103F6800EFE7C046F8FFFDBF0F80FFFFF8B5041E5E
:103F78003BD0026813680125AB43136007681C4BEC
:103F8800F8181421FCF7B8F88000206400263E6079
:103F980018494B681C22206C024095401D434D6017
:103FA8002000FFF75BFF636C1E60A36CE26C5A6035
:103FB8006368013B032B0ED9002323656365A36562
:103FC800E36223636363A363E3632522A354013A93
:103FD800A3540020F8BD2000FFF75CFF236D0022EA
:103FE8001A60636DA26D5A60E6E70120F2E7C046E9
:103FF800F8FFFDBF0000024070B504002420205CDB
:10400800012845D02420012525540130205C0128B1
:1040180006D08023E3635C3B0022E254012070BD9C
:104028002430013525540020E063256828680126DE
:10403800B04328602000FFF7EDFE236B002B1CD057
:10404800226813680E210B431360636C1A68D2034D
:1040580004D51968802252000A431A60236D002B88
:1040680004D01968802252000A431A602268136833
:1040780001210B4313600020D1E722681368042153
:104088008B4313602268136806310B431360DCE727
:104098000220C4E770B52523C35C022B03D0042398
:1040A800C363012070BD026813680E218B4313603F
:1040B80001680A6801239A430A60416C0A68134C34
:1040C80022400A60124C62681C21056C29408B4012
:1040D80013436360836CC26C5A60036D002B06D077
:1040E8001A680A490A401A60436D826D5A6025238E
:1040F8000122C254013B0022C254836B002B02D020
:1041080098470020CEE70020CCE7C046FFFEFFFF1F
:104118000000024070B5314B1968046825681C23FB
:10412800026C134004229A40114216D06A0714D533
:1041380023689B0603D42368042293432360274CF7
:1041480063681C21026C114004228A401343636097
:10415800036B002B00D0984770BD02229A40114291
:104168001CD0AA071AD523689B0606D423680A22FE
:10417800934323602523093AC254184C63681C21D1
:10418800026C114002228A401343636024230022F8
:10419800C254C36A002BDFD09847DDE708229A4053
:1041A8001142D9D02B07D7D523680E229343236019
:1041B8000A4C62681C21036C194001231D008D40C4
:1041C8002A436260C3632522835423330022C254E6
:1041D800436B002BC0D09847BEE7C04600000240A2
:1041E800F0B500235AE084685F000326BE40B4435C
:1041F8002600CC68BC4034438460446894434A68D1
:104208001609012232409A402243426056E0DC08F7
:104218000834A400265805321A4092000F27974008
:10422800BE430F6997403A00324322505AE00326B2
:1042380000E00026A64034003C43434E183292006A
:1042480094513468EA432600AE434F68FF0201D513
:104258002C4326003C4C26606468260016404F68B4
:10426800BF0201D52C432600374C66608426A4592A
:10427800260016404F68BF0301D52C432600324C58
:104288008427E6518026A45922404E68F60301D5BA
:104298002A0022432C4D80242A5101330C68220025
:1042A800DA404FD001229A40250015401442F4D03C
:1042B80003244E683440013C012C94D903224C68F5
:1042C8002240032A09D0C2685E000324B440A243F6
:1042D80014008A68B2402243C26003224C6822401C
:1042E800022A94D004685E0003221700B740BC433A
:1042F8004F683A40B24022430260C02292024C68A2
:104308001442CAD09A0814001834A4000E4EA759B3
:1043180003241C40E4000F26A640B743A026F60558
:10432800B04286D0094EB04208D0094EB04207D0FC
:10433800084EB04200D17AE705267BE7012679E7E7
:10434800022677E7F0BDC04600180240000400507E
:1043580000080050000C0050F0B5CE46474680B526
:104368008946002323E00321884601E0002188468E
:104378004146A140A94247D004685E000325B540E4
:104388002C430460DC080834A400275807261E4084
:10439800B6000F21B1408F4327508468AC43846036
:1043A800446894434460C268AA43C26001334A46E1
:1043B800DA4046D001229A404C461440A446494669
:1043C8001142F3D09F083C001834A4001F4D6559D2
:1043D80003241C40E4000F26A6403540A021C9054F
:1043E8008842C3D01A49884208D01A49884208D05E
:1043F80019498842B7D005218846B9E7012188467E
:10440800B6E702218846B3E7104D802188466C58EC
:1044180061468C4341466C50043188466C5861466D
:104428008C4341466C506C6861468C436C602C68C8
:104438008C432C603C001834A4006759B74367517B
:104448009AE7C0BCB946B046F0BDC0460018024065
:104458000004005000080050000C005010B5040083
:10446800094BDB68184204D1074B1B69234205D16D
:1044780010BD054BD860FEF7E7FAF5E7024B1C6163
:104488002000FEF7BBFAF3E700180240F0B5D64665
:104498004F464646C0B582B006000D0090461F0044
:1044A800FFF74AFC0A9B181A8146B944FFF744FCF7
:1044B80082462E4B1B685B011B0D4A4653430193F2
:1044C80033689C682C40641B63425C41444545D07A
:1044D8007B1CF5D0FFF730FC5346C01A48450BD279
:1044E8004B46002B08D0019A002A00D04A46019B6F
:1044F800013B01939146E3E732685368E0218B431F
:10450800536082235B0072689A420CD080239B011F
:10451800B26A9A4216D05D230122F254013B00226E
:10452800F25403201BE0B36880221202934203D0A6
:104538008022D2009342E9D13268136840218B432C
:104548001360E3E73268136809490B401360326867
:10455800116880239B010B431360DCE7002002B045
:10456800E0BCBA46B146A846F0BDC0461C000020D3
:10457800FFDFFFFFF0B5DE4657464E464546E0B53D
:1045880083B007000D00160098466B460022DA70CB
:10459800FFF7D2FB0C9B181A40448146FFF7CCFB6F
:1045A80082463B689B46364B1A6893009A18D3009C
:1045B8009B1A1B0D4A465343019302E043460133BD
:1045C80011D13B689C682C40B44250D0C023DB001A
:1045D8009D42F3D1002EF1D15B461B7BDBB26A46CC
:1045E800D370D378EAE7FFF7A7FB5346C01A4845CC
:1045F8000BD24B46002B08D0019A002A00D04A461D
:10460800019B013B01939146DBE73A685368E0213F
:104618008B43536082235B007A689A420CD08023D4
:104628009B01BA6A9A4216D05D230122FA54013BD3
:104638000022FA5403201BE0BB6880221202934236
:1046480003D08022D2009342E9D13A68136840210E
:104658008B431360E3E73A6813680A490B40136019
:104668003A68116880239B010B431360DCE7002044
:1046780003B0F0BCBB46B246A946A046F0BDC04652
:104688001C000020FFDFFFFF70B582B004000D00A2
:104698001600C02100922B0000224901FFF76AFF93
:1046A800002818D100962B00002280212000FFF757
:1046B800EDFE002816D1C02100962B000022C9006B
:1046C8002000FFF757FF00280AD0236E202213434B
:1046D8002366032004E0236E20221343236603206D
:1046E80002B070BD236E2022134323660320F7E730
:1046F80070B582B004000D00160082235B0042688A
:104708009A420FD000962B00002280212000FFF74C
:10471800BDFE002815D182235B0062689A4216D03C
:1047280002B070BD836880221202934203D08022B7
:10473800D2009342E6D12268136840218B4313606C
:10474800E0E7236E2022134323660320E8E7A368EB
:1047580080221202934203D08022D2009342DFD1FA
:10476800C02100962B000022C9002000FFF702FF9D
:104778000028D5D0236E2022134323660320CFE7D9
:1047880070B5041E00D178E0436A002B07D10533C9
:10479800FF3342689A4205D00023C36102E0002338
:1047A800036143610023A3625D33E35C002B5AD0AD
:1047B8005D230222E2542268136840218B43136070
:1047C800E368E022D200934254D90022F021090183
:1047D8008B4205D0E021C9008B4201D00023A3629F
:1047E80082235B0061680B4084210902A0680140B4
:1047F8000B430221206901400B43012160690840F5
:10480800034380208000A569284003433820E569D8
:10481800284003438020256A2840034380208001E4
:10482800A56A2840034320680360608B0423034083
:104838001020656A284003430820656B284003431D
:10484800F0200001E56828400343206813434360D3
:104858002268D3690A480340D361002323665D3385
:10486800E154002070BD5C330022E2542000FFF7C1
:1048780049F89DE780225201A8E70120F2E7C046E7
:10488800FFF7FFFF70B5041E10D05D2502234355C6
:104898000268136840218B431360FFF787F80023F1
:1048A800236663555C22A354002070BD0120FCE7F9
:1048B80070B504005C20205C012800D1F5E05C2084
:1048C800012525540130205CC6B2656801280BD04B
:1048D80082204000854200D0D8E0A068002800D09F
:1048E800D9E0042E00D0D8E0002900D1D7E0002A72
:1048F80000D1D6E0002B00D1D5E05D20205C042853
:1049080002D05D200525255400202066A163A387D9
:10491800E38722644422A3520232A352E064206552
:104928002268536862490B405360E023DB00E26869
:104938009A4228D9226853685E490B4053605D2328
:10494800E35C042B67D0A36D5B4A1A63A36D5B4AD3
:10495800DA62A36D5A4A5A63A36D00229A632168EA
:104968000C314623E35A9BB2226CA06DFFF744FB3F
:10497800002857D0236E1022134323665D230F3A75
:10498800E254012083E02268516880235B010B43D5
:104998005360636D9A698023DB009A4218D0A36D37
:1049A8009A698023DB009A42C9D122685368414939
:1049B8000B4053604623E35ADB0720D42268536830
:1049C80040490B4053604622A35A5B08A352B6E7FE
:1049D800A38FDB0708D4226853683B490B40536018
:1049E800E38F5B08E387DAE7226851688023DB01FD
:1049F8000B435360E38F5B080133E387CFE72268FB
:104A0800516880239B010B4353604622A35A5B08DD
:104A18000133A35293E7A36D2C4A1A63A36D2C4A62
:104A2800DA6296E72268536801210B435360626D8E
:104A380000231363626DD362626D5363626D936387
:104A480022680C32E38F9BB2A16B606DFFF7D4FA3A
:104A5800002812D123681A68520603D41A68402124
:104A68000A431A602268536820210B435360226866
:104A780053681E390B43536009E0236E1022134319
:104A880023665D230F3AE254012000E002205C23F4
:104A98000022E25470BD0220F9E70220F7E7012066
:104AA800F5E70120F3E70120F1E70220F2E7C0462D
:104AB800FF9FFFFFFFEFFFFF7B4C00081F4D000823
:104AC800874C0008FFDFFFFFFFBFFFFF6F4C0008A8
:104AD800A94C000870B504008368002B04D182201B
:104AE8004000656885425ED05C20205C012800D1CA
:104AF800A8E05C20012525540130255CEEB2012D8B
:104B080000D099E0002900D197E0002A00D194E074
:104B18000335255400202066216444216252023165
:104B28006252E0642065A087E087802212029342E7
:104B380044D02268536844490B405360E023DB00AB
:104B4800E2689A4245D92268536840490B4053604D
:104B5800A36D3F4A1A63A36D3E4ADA62A36D3E4ACB
:104B68005A63A36D00229A6321680C314623E35AE5
:104B78009BB2226CA06DFFF73FFA002854D123683E
:104B88001A68520603D41A6840210A431A60226838
:104B9800536820210B435360226853681F390B4325
:104BA8005360060049E05D330138FF38E0541300D4
:104BB8000A002000FFF77CFE060041E02268136827
:104BC80006398B4313602268136824490B4013602D
:104BD800AFE72268516880235B010B435360A36DE4
:104BE8009A698023DB009A42B2D122685368174938
:104BF8000B4053604623E35ADB0709D42268536805
:104C080011490B4053604622A35A5B08A3529FE701
:104C18002268516880239B010B4353604622A35AA4
:104C28005B080133A35293E7236E102213432366D4
:104C38005D230F3AE25400E002265C230022E2548E
:104C4800300070BD0226FBE7FFDFFFFFFFEFFFFF2D
:104C58006F4C0008A94C0008874C0008FFBFFFFFF5
:104C680070477047704710B5806AFFF7FBFF10BDAB
:104C7800704710B5806AFFF7FBFF10BD704710B58D
:104C8800806A0268536803218B435360036E1022C5
:104C9800134303665D230F3AC254FFF7EFFF10BDBD
:104CA80070B50500846AFFF747F802002B681B6897
:104CB8009B0622D421684B68202083434B60A3685D
:104CC800002B04D10533FF336168994219D021685C
:104CD8004B68012083434B6064212000FFF708FDE7
:104CE800002801D02023236646230022E2521733EE
:104CF8000132E254236E002B09D12000FFF7B0FFE8
:104D080070BD21684B681D3883434B60E4E7200081
:104D1800FFF7B4FFF4E770B50500846AFFF70CF8F5
:104D280002002B681B689B061DD421684B68202055
:104D380083434B6064212000FFF7A6FC002803D0C2
:104D4800236E2022134323662268536803218B4372
:104D580053600023E3874622A3525D33453AE25469
:104D6800236E002B03D12000FFF77BFF70BD2000CE
:104D7800FFF784FFFAE70000F0B585B00400026889
:104D8800556893689909012006000E40084203D12E
:104D9800D90701D569066AD4990701D529066AD4C5
:104DA8005909012007000F40084203D1002E01D104
:104DB800D90563D5A90661D5002E0ED05D21615CA9
:104DC80003295DD0216E0420014321660021009152
:104DD800D1680091916800910099002F0CD0216E44
:104DE8000120014321660021029191680291116816
:104DF8003F3081431160029ADB0509D5236E0822F2
:104E0800134323660023039323689B680393039B40
:104E1800236E002B32D022685368E0218B43536005
:104E28005D230122E254AB0732D022685368DD3992
:104E38008B435360A36D002B0AD0174A9A63A06D69
:104E4800FFF728F9002803D0236E40221343236676
:104E5800636D002B12D0104A9A63606DFFF71AF940
:104E680000280BD0236E40221343236606E0E36C30
:104E78002000984702E0236D2000984705B0F0BD58
:104E880000230193D368019393680193019BF5E78D
:104E98002000FFF7F3FEF1E7A54E000810B5806A81
:104EA800002346228352C387FFF7E8FE10BD0000A7
:104EB80030B5036A012293430362036A4268846936
:104EC800154D2C400D682C430225AB438D682B43B0
:104ED800124DA84205D0124DA84202D0114DA84249
:104EE80005D10825AB43CD682B430425AB430B4DB7
:104EF800A84205D00A4DA84202D00A4DA84205D1C1
:104F0800094D2A404D692A438D692A4342608461CC
:104F18004A684263036230BD8CFFFEFF002C0140EB
:104F28000044014000480140FFFCFFFF70B5036AE0
:104F3800184A13400362036A4468C269164D2A403E
:104F48000E681643154A13408A6812021343144A1E
:104F5800904216D0124A904205D0124A904202D08E
:104F6800114A904207D1114A22404C692401144346
:104F78008A6915012C434460C6614A68C2630362AA
:104F880070BD0B4A1A40CB681B021343094A1340F1
:104F9800E0E7C046FFFEFFFF8CFFFEFFFFFDFFFFBF
:104FA800002C01400044014000480140FFCFFFFFB2
:104FB800FFF7FFFFFFFBFFFF30B5036A114A1340FD
:104FC8000362036A4568C2690F4C22400C682402D8
:104FD80022430E4C1C408B681B0323430C4CA042FD
:104FE80005D00C4CA04202D00B4CA04204D10B4C73
:104FF80025404C69A40125434560C2614A680264A2
:10500800036230BDFFEFFFFFFF8CFFFEFFDFFFFFF6
:10501800002C01400044014000480140FFBFFFFF51
:1050280030B5036A114A13400362036A4268446D4B
:105038000F4D2C400D682C430E4D1D408B681B04F2
:105048002B430D4DA84205D00C4DA84202D00C4D63
:10505800A84204D1054D2A404D692D022A434260D9
:1050680044654A688265036230BDC046FFFFFEFFA3
:105078008FFFFEFFFFFFFDFF002C014000440140B1
:105088000048014030B5036A114A13400362036ABD
:105098004568426D0F4C22400C68240222430E4C96
:1050A8001C408B681B0523430C4CA04205D00C4CBC
:1050B800A04202D00B4CA04204D10B4C25404C69B5
:1050C800A4022543456042654A68C265036230BD53
:1050D800FFFFEFFFFF8FFFFEFFFFDFFF002C014008
:1050E8000044014000480140FFFFFBFF30B5036A60
:1050F800046A0125AC4304628469EF35AC431201AC
:1051080022430A24A3430B438261036230BD00009B
:1051180030B5036A1024A34303628469036A054D0A
:105128002C4012032243A024A3430901194382619E
:10513800016230BDFF0FFFFF8368034A13400B4332
:1051480007210B43836070478FFFCFFF704710B56F
:10515800846A636A83420ED0A36A834214D0E36AE6
:1051680083421AD0236B834220D02000FDF704FE2F
:105178000023237710BD01232377C369002BF4D1C3
:105188003E330122E254F0E702232377C369002B60
:10519800EBD13F330122E254E7E704232377C369C5
:1051A800002BE2D140330122E254DEE708232377C3
:1051B800C369002BD9D141330122E254D5E77047A6
:1051C80010B5846A636A83420BD0A36A834210D005
:1051D800E36A834210D0236B834204D108232377E8
:1051E80001E0012323772000FFF7E9FF002323775D
:1051F80010BD02232377F6E704232377F3E77047EC
:1052080010B5846A636A83420CD0A36A834213D0C0
:10521800E36A834216D0236B834219D03D230122CF
:10522800E25403E0012323773E22A3542000FFF732
:10523800E6FF0023237710BD022323773D330122A5
:10524800E254F3E7042323773C330122E254EDE7E9
:105258000823237739330122E254E7E703681A4A1F
:10526800904202D0194A904203D1702293434A686F
:105278001343154A90420BD0144A904208D0144A5E
:10528800904205D0134A904202D0134A904203D16B
:10529800124A1340CA681343802293434A6913434E
:1052A80003608B68C3620B688362074B984205D022
:1052B800084B984202D0084B984201D10B6903630E
:1052C800012343617047C046002C014000040040A0
:1052D800002000400044014000480140FFFCFFFF5F
:1052E80070B5041E2AD03D23C35C002B20D03D2579
:1052F80002236355210001C9FFF7B0FF01234822AB
:10530800A3540A3AA3540132A3540132A3540132DC
:10531800A3540132A3540132A3540132A3540132DD
:10532800A3540132A3540132A3546355002070BD25
:105338003C330022C254FEF79DFBD8E70120F6E774
:1053480070B5041E2AD03D23C35C002B20D03D2518
:1053580002236355210001C9FFF780FF012348227A
:10536800A3540A3AA3540132A3540132A35401327C
:10537800A3540132A3540132A3540132A35401327D
:10538800A3540132A3540132A3546355002070BDC5
:105398003C330022C254FFF7D9FED8E70120F6E7D4
:1053A80030B5036A102293430362036A456884692F
:1053B800164A14400A6812021443202293438A684A
:1053C80012011343124A904216D0114A904205D056
:1053D800104A904202D0104A904207D10F4A2A4000
:1053E8004D69AD0015438A69920015434560846193
:1053F8004A688263036230BD802293431A00CB68F7
:105408001B01134340229343DFE7C046FF8CFFFE96
:10541800002C01400044014000480140FFF3FFFF19
:1054280070B504000D003C23C35C012B00D192E051
:105438003C230121C154142A00D987E09200474B2C
:105448009B589F4629000068FFF732FD2268936940
:1054580008210B4393612268936904398B43936154
:105468002268936929690B43936100206FE0290042
:105478000068FFF795FF2268916980231B010B43A1
:1054880093612268936936490B40936121688B695F
:105498002A69120213438B61002058E02900006832
:1054A800FFF744FD2268D36908210B43D3612268C2
:1054B800D36904398B43D3612268D36929690B43C3
:1054C800D361002043E029000068FFF775FD2268DA
:1054D800D16980231B010B43D3612268D36920491A
:1054E8000B40D3612168CB692A6912021343CB614F
:1054F80000202CE029000068FFF792FD2268536D18
:1055080008210B4353652268536D04398B43536557
:105518002268536D29690B435365002017E0290061
:105528000068FFF7AFFD2268516D80231B010B4314
:1055380053652268536D0A490B40536521684B6DCA
:105548002A69120213434B65002000E001203C2326
:105558000022E25470BD0220FCE7C046705E0008DD
:10556800FFFBFFFF30B58468034D2C401B0213433B
:105578000B432343836030BDFF00FFFF10B50400D9
:105588003C23C35C012B00D178E03C230122C254A8
:1055980001330132C254026893683948034093606A
:1055A8000B68602B50D02AD8402B58D00CD9502BE0
:1055B80023D1CA6849682068FFF798FD5021206800
:1055C800FFF7BAFD002005E0202B0ED009D9302BBB
:1055D8000BD001203D230122E254013B0022E2547A
:1055E80010BD002B01D0102B05D119002068FFF742
:1055F800A3FD0020EEE70120ECE70120EAE7802286
:105608005201934236D08022920193420DD1CB6849
:105618004A6889682068FFF7A5FF22689168802397
:10562800DB010B4393600020D4E7702B24D1CB68B7
:105638004A6889682068FFF795FF22689368772190
:105648000B4393600020C5E7CA6849682068FFF7E4
:105658005FFD60212068FFF76FFD0020BAE7CA6888
:1056680049682068FFF742FD40212068FFF764FD84
:105678000020AFE70020ADE70120ABE70220AFE74D
:105688008800CEFF10B51F23194001248C40036AFF
:10569800A3430362036A8A401343036210BD0000F8
:1056A80070B506000C001100002C41D13E22855C2B
:1056B800023D6A425541EDB2002D00D024E1002C94
:1056C80061D13E22B25C013A50424241D2B2002A34
:1056D80000D11BE1002900D11AE1002B00D119E10A
:1056E800002C7BD13E220220B054082C00D1E6E0E9
:1056F80000D991E0002C00D1AAE0042C00D089E068
:10570800B26A8B48D062B26A8A481063B26A8A4821
:10571800506332683832B06AFEF76EFC002800D059
:10572800FCE03268D1688023DB000B43D360A5E03E
:10573800042C0CD0082C11D00C2C16D0102C1BD0FB
:105748004322855C023D6A425541EDB2B4E73F22EF
:10575800855C023D6A425541EDB2ADE74022855C69
:10576800023D6A425541EDB2A6E74122855C023D01
:105778006A425541EDB29FE74222855C023D6A428A
:105788005541EDB298E7042C0CD0082C11D00C2C04
:1057980016D0102C1BD04322B25C013A5042424131
:1057A800D2B294E73F22B25C013A50424241D2B2AF
:1057B8008DE74022B25C013A50424241D2B286E7BC
:1057C8004122B25C013A50424241D2B27FE74222C2
:1057D800B25C013A50424241D2B278E7042C09D077
:1057E800082C0BD00C2C0DD0102C0FD043220220EB
:1057F800B0547AE73F220220B05476E740220220D4
:10580800B05472E741220220B0546EE742220220CF
:10581800B0546AE701207AE00C2C17D1326B444867
:10582800D062326B43481063326B4348506332682E
:105838004032306BFEF7E0FB002800D072E032689F
:10584800D16880235B010B43D36017E001205EE041
:10585800726A3748D062726A36481063726A36488C
:10586800506332683432706AFEF7C6FB002853D1A1
:105878003268D16880239B000B43D360012221004A
:105888003068FFF7FFFE33682C4A934205D02C4A54
:10589800934202D02B4A934204D1596C80221202BF
:1058A8000A435A643368254A93421FD0264A9342D2
:1058B8001CD01A6801210A431A60002027E0F26A06
:1058C8001B48D062F26A1B481063F26A1A48506398
:1058D80032683C32F06AFEF78FFB002820D132682C
:1058E800D16880231B010B43D360C7E79A68174927
:1058F8000A40062A18D007398A4217D01A680121A7
:105908000A431A60002002E0022000E0012070BD76
:105918000120FCE70120FAE70120F8E70120F6E77B
:105928000120F4E70120F2E70020F0E70020EEE78D
:1059380057510008C951000809520008002C0140BD
:1059480000440140004801400004004007000100F5
:1059580070B505000C00082947D00ED8002919D0C9
:10596800042908D10268D3683B490B40D360806A98
:10597800FEF790FB16E0012036E00C2908D10268FA
:10598800D36836490B40D360006BFEF783FB09E010
:10599800012029E00268D36831490B40D360406A8E
:1059A800FEF778FB002221002868FFF76BFE2B68C2
:1059B8002C4A934222D02C4A93421FD02B4A93421E
:1059C8001CD02B68196A2A4A114207D1196A294A38
:1059D800114203D11A6801218A431A60002C1AD196
:1059E8003E230122EA54002070BD0268D368224990
:1059F8000B40D360C06AFEF74DFBD3E7196A1C4A17
:105A08001142DED1196A1B4A1142DAD15A6C1B497C
:105A18000A405A64D5E7042C0AD0082C0DD00C2C67
:105A280010D0102C13D043230122EA540020DBE7C6
:105A38003F230122EA540020D6E740230122EA54FA
:105A48000020D1E741230122EA540020CCE7422379
:105A58000122EA540020C7E7FFFBFFFFFFEFFFFF2B
:105A6800FFFDFFFF002C01400044014000480140B9
:105A78001111000044040000FFF7FFFFFF7FFFFF44
:105A880030B53C23C35C012B29D03C230122C254EE
:105A980001330132C254026853689468114DAA4216
:105AA80018D07025AB430D682B43536003680D4A2B
:105AB800934202D00C4A934204D1802294438A68CC
:105AC80014439C603D230122C254013B0022C2546E
